:020000040800F2
:10000000F8040020A90100089B12000873110008E1
:1000100099120008CD040008E5190008000000004E
:100020000000000000000000000000009D13000818
:10003000CF040008000000009D120008B51700085A
:10004000C3010008C3010008C3010008C301000880
:10005000C3010008C3010008C3010008C301000870
:10006000C3010008C3010008C3010008C301000860
:10007000C3010008C3010008C3010008C301000850
:10008000C3010008C3010008C3010008000000000C
:10009000000000000000000000000000C301000894
:1000A000C3010008C3010008C3010008C301000820
:1000B000C3010008C3010008C3010008C301000810
:1000C000C3010008C3010008C3010008C301000800
:1000D000C3010008C3010008C301000800000000BC
:1000E000C3010008C3010008C301000800000000AC
:1000F000000000000000000000000000C301000834
:1001000000000000C3010008C3010008C30100088B
:1001100000000000000000000000000000000000DF
:10012000C3010008C3010008C3010008C30100089F
:10013000C3010008000000000000000000000000F3
:10014000000000000000000000000000C3010008E3
:10015000C3010008C3010008C3010008C30100086F
:10016000C3010008C30100080000000000000000F7
:10017000000000000000000000000000000000007F
:1001800000000000C30100080000000000000000A3
:10019000C3010008DFF80CD000F086F900480047E2
:1001A000351C0008F8040020064880470648004730
:1001B000FEE7FEE7FEE7FEE7FEE7FEE7FEE7FEE717
:1001C000FEE7FEE73D180008950100082DE9F05F05
:1001D0000546002092469B468846064681464024B6
:1001E0001BE0284641464746224600F0EFF85346BA
:1001F0005A46C01A914110D311461846224600F0C3
:10020000D6F82D1A67EB01084F462246012000213F
:1002100000F0CDF817EB00094E41201EA4F10104B7
:10022000DFDC484631462A464346BDE8F09FD2B25D
:1002300001E000F8012B491EFBD270470022F6E7CF
:1002400010B513460A4604461946FFF7F0FF20464C
:1002500010BD2DE9FE4F81EA030404F0004421F0B3
:10026000004100944FF0000B23F0004350EA0104DA
:100270005ED052EA03045BD0C3F30A54C1F30A55BB
:100280002C44A4F2F3340194A0FB0254C1F31301F3
:1002900041F48011C3F3130343F4801301FB0244C0
:1002A00000FB034E840A970A44EA815447EA8357C5
:1002B000A4FB076802958D0A05FB07854FEA932C7E
:1002C00004FB0C542705029D4FEA065847EA1637EF
:1002D000B5EB08056EEB070C870E920E47EA811707
:1002E00042EA8312A7FB0201B6EB0B0164EB0004A8
:1002F0002B0D43EA0C335E1844EB1C50DA46514692
:10030000E7FB0201C5F313044FEA0B3343EA14532E
:100310004FEA0432019C43EA0603A4F10C04029460
:10032000009CCDE900B400F070F803B0BDE8F08F98
:1003300000200146F9E70EB540F233410291002159
:10034000CDE900110A460B4600F05FF803B000BD8E
:10035000C1F30A5210B5C1F3130140F2FF3341F467
:1003600080119A4201DA002010BD40F233439A42D4
:10037000A2F2334203DC524200F028F810BD904054
:1003800010BD30B50B46014600202022012409E0B3
:1003900021FA02F59D4205D303FA02F5491B04FA3E
:1003A00002F52844151EA2F10102F1DC30BD202A1D
:1003B00004DB203A00FA02F1002070479140C2F1BC
:1003C000200320FA03F3194390407047202A04DBEE
:1003D000203A21FA02F00021704721FA02F3D040BE
:1003E000C2F12002914008431946704710B5141E0F
:1003F00073F1000408DA401C41F1000192185B41DE
:100400001A4301D120F0010010BD2DE9F04D9246B4
:100410009B4611B1B1FA81F202E0B0FA80F22032CB
:100420009046FFF7C4FF04460F4640EA0A0041EA3F
:100430000B0153465A46084313D0114653EA0100B4
:1004400019D0C8F140025046FFF7C0FF05460E46DE
:10045000504659464246FFF7AAFF084305D00120FF
:1004600004E020463946BDE8F08D0020054346EA09
:10047000E0762C4337430A986305E40AA0EB0800B2
:100480000022FD0A44EA47540A3002D50020014602
:10049000E9E7010510196941DDE9084500196941DD
:1004A000BDE8F04DA2E70000064C074D06E0E0680D
:1004B00040F0010394E8070098471034AC42F6D3AB
:1004C000FFF76CFE741F0008941F0008FEE77047DA
:1004D0007047000070B5044600F0E2F80546601C65
:1004E00002D004480078044400F0DAF8401BA0422F
:1004F000FAD370BD040000202DE9F84F00224FF020
:10050000010803254FF00F0E0B6808FA02F4234090
:10051000A34271D14E68012E05D0022E03D0112EB8
:1005200001D0122E15D18668570005FA07FC26EA7D
:100530000C06D1F80CC00CFA07FC4CEA060CC0F80B
:1005400008C04668A6430C79C4F3001494403443B1
:100550004460C668570005FA07FC8C6826EA0C065A
:10056000BC403443C4604C68022C01D0122C13D11F
:10057000D40800EB8404A346D4F8209054074FEA33
:10058000D46A0EFA0AF629EA06090E6906FA0AF68C
:1005900046EA0906CBF8206004680E7924EA0C04C8
:1005A00006F00306BE40264306604C68E40056D5BC
:1005B0002E4C266846F480462660246822F0030606
:1005C00004F4804400942A4C3444A446D4F80848E7
:1005D0009607370F0EFA07F6B443264EB04201D104
:1005E000002615E0244EB04201D1012610E0234E32
:1005F000B04202D102260BE031E0214EB04201D1DF
:10060000032605E01F4EB04201D1042600E0072674
:10061000BE402643CCF808681B4E34684F689C43A4
:10062000FF0300D51C433460174E361D34684F68F5
:100630009C43BF0300D51C433460134E0836346816
:100640004F689C43FF0200D51C4334600E4E0C36AD
:1006500034684F689C43BF0200D51C433460521C71
:10066000102AFFF451AFBDE8F88F00004438024073
:100670000030014000000240000402400008024037
:10068000000C024000100240003C0140006908409C
:1006900000D0012070470AB1816170470904FBE76F
:1006A000014880687047000004000020024881680B
:1006B0000278114481607047040000200B4810B597
:1006C000016841F400710160016841F480610160DA
:1006D000016841F480710160032000F061F800209E
:1006E00000F006F800F024F8002010BD003C0240A5
:1006F00070B50D4D04464FF47A712878B1FBF0F0D7
:100700000A490968B1FBF0F000F05BFC48B9102C15
:1007100007D200222146501E00F022F800206C6013
:1007200070BD012070BD00000400002010000020FA
:100730000A4808B5016841F480410160006800F48E
:10074000804000900548001F016841F08051016021
:10075000006800F08050009008BD0000443802405E
:10076000F0B40E4B1B680C46C3F30223C3F107051C
:10077000042D00D90425191D072901D2002300E00A
:10078000DB1E012606FA05F1491E214099409E40D4
:10079000761E16403143F0BC01F03CB90CED00E090
:1007A000064900F0070208684FF6FF03184040EAC8
:1007B0000220034A10430860704700000CED00E07F
:1007C0000000FA052DE9F0470E46050065D0DFF878
:1007D0001481D8F80000F7B200F00F00B04207D241
:1007E00088F80070D8F8000000F00F00B04254D133
:1007F00028683D4C810712D5400703D5206840F496
:10080000E05020602878000703D5206840F460405D
:1008100020602068A96820F0F00008432060287854
:10082000C0072DD0304968680839012812D0022845
:1008300013D0032811D00968890700292DDA21680F
:1008400021F0030101432160FFF72AFF814641F2B5
:10085000883A0EE009688903EFE709688901ECE747
:10086000FFF71EFFA0EB0901514502D90320BDE8A7
:10087000F0872068696800F00C00B0EB810FEFD1C1
:10088000D8F80010404601F00F01B14207D90770B7
:10089000006800F00F00B04201D00120E7E728789F
:1008A000400705D52068E96820F4E050084320603F
:1008B0002878000706D52068296920F4604040EABE
:1008C000C100206000F038F82168084AC1F3031124
:1008D000515CC8400649086006480068FFF708FFF9
:1008E0000020C4E7003C024008380240501F0008C6
:1008F000100000200800002004480549006809682D
:10090000044AC1F38221515CC840704710000020A6
:1009100008380240601F000804480549006809685B
:10092000044AC1F34231515CC840704710000020B6
:1009300008380240601F0008154810B5006810F024
:100940000C02144813D01449042A0FD0082A0ED1DF
:100950000F4C241F2268236802F03F025B0207D578
:100960002068C0F38810A0FB010106E0084610BD16
:100970002168C1F38811A1FB00010023FFF726FCC9
:100980002168C1F30141491C4900B0FBF1F010BDE1
:10099000083802400024F40040787D012DE9F84F2A
:1009A000040076D02078DFF838A3CE4DC00749D0B8
:1009B000DAF800105046C1F38101012908D000681F
:1009C000C0F3810002280AD1281D0068400206D524
:1009D0002868800336D560680028E2D032E060687D
:1009E000B0F5803F10D0B0F5A02F286810D020F4CB
:1009F00080302860286820F4802028606068A0B1DA
:100A0000FFF74EFE06460CE0286840F48030F4E71D
:100A100040F480202860F7E7FFF742FE801B64283F
:100A200073D828688003F7D50CE0FFF739FE064637
:100A300005E000BFFFF734FE801B6428F0D828686B
:100A40008003F7D42078DFF8A08280074FF00009F8
:100A50003ED5DAF80010504611F00C0F09D00068AE
:100A6000C0F3810002280BD19D48001F006840029E
:100A700006D42868800715D5E068012809D111E05F
:100A8000E068B8B10120C8F80000FFF709FE06468B
:100A900005E020E1FFF704FE801B0228C0D828688B
:100AA0008007F7D52868216920F0F80040EAC100E6
:100AB00028600DE0C8F80090FFF7F2FD064604E05C
:100AC000FFF7EEFD801B02281FD828688007F7D4A7
:100AD0002078000722D5824E844861696C3671B156
:100AE00001210160FFF7DCFD074604E0FFF7D8FDB8
:100AF000C01B022809D830688007F7D50EE0C0F87F
:100B00000090FFF7CDFD074605E082E0FFF7C8FD46
:100B1000C01B02287DD830688007F7D420784007B2
:100B200068D5DFF8BCB100270BF1380BDBF800000B
:100B3000C0000BD4DBF8001041F08051CBF800105E
:100B4000DBF80000012700F080500090684E30680C
:100B5000C00510D4306840F480703060FFF7A0FD0D
:100B6000009005E0FFF79CFD0099401A022850D83C
:100B70003068C005F6D55A4EA068683601280FD0F7
:100B80000528306810D020F001003060306820F077
:100B900004003060A068B8B1FFF782FD00900FE05C
:100BA000306840F00100F4E740F004003060F7E7FF
:100BB000FFF776FD0099411A41F28830814266D8EC
:100BC00030688007F4D50EE0FFF76AFD009007E07B
:100BD000FFF766FD0099411A41F28830814256D8EC
:100BE00030688007F4D42FB1DBF8001021F0805179
:100BF000CBF80010A069D0B3DAF800205146C2F358
:100C00008102022A4AD00228484607D0C8F860006C
:100C100000E03CE0FFF744FD04463BE04746C8F8EF
:100C20006000FFF73DFD064605E000BFFFF738FD19
:100C3000801B02282BD828688001F7D4D4E907014B
:100C40000843A16A2B4A490802EB0141626A41EA62
:100C50008211084394F82C1040EA01612048001FDB
:100C6000016001203866FFF71BFD044605E034E013
:100C7000FFF716FD001B022809D828688001F7D568
:100C80002BE000BFFFF70CFD001B022802D9032058
:100C9000BDE8F88F28688001F4D41EE00128F7D061
:100CA0000868E26900F48001914214D1226A00F0E0
:100CB0003F0191420FD147F6C071626A01409142F3
:100CC00009D1A26A00F44031914204D1E16A00F0F6
:100CD0007060884201D00120DAE70020D8E70000E8
:100CE000083802400038024000004742800E474268
:100CF000007000400000FFFF70B5040005D0002523
:100D0000A56294F8510010B106E0012070BD84F88E
:100D10005050204600F030F8022084F8510020683E
:100D2000016821F040010160D4E901010843D4E9E0
:100D300003121143084361690843218B01F40071D8
:100D40000843E1690843216A0843A16A084321680E
:100D50000860A069042101EA1040616A0843216823
:100D600048602068C16921F40061C16165650120A6
:100D700084F85100002070BD10B586B004461421DF
:100D80006846FFF75BFA13492068884220D1124871
:100D90000021026842F480520260006800F4805032
:100DA00005900D481438026842F0010202600068A4
:100DB00000F001000590E02000900220CDE9010143
:100DC000032003900520049069460448FFF794FB34
:100DD00006B010BD0030014044380240000002401F
:100DE0002DE9F84F044690F8500000270A9E1D4652
:100DF00092468B464FF0010901280ED0012084F85D
:100E00005000FFF74DFC804694F8510061680128BE
:100E10000CD0B1F5827F07D102E00220BDE8F88F47
:100E2000A16809B9042801D00227C2E0BBF1000F74
:100E300027D0BAF1000F24D01DB394F85100042834
:100E400002D0052084F8510000206065C4F838A065
:100E5000E587A587C4F830B0E586A5862064606480
:100E600020680168490603D4016841F0400101602F
:100E7000E068B0F5006F606805D0E8B3012D46D09A
:100E80007FE0012795E008B1012D39D1206B216861
:100E90000088C860206B801C2063E08E401EE086C6
:100EA0002EE02068816889070FD5E18E69B1B9F11C
:100EB000010F0AD1216B0988C160206B801C20635F
:100EC000E08E401EE0864FF0000920688168C90767
:100ED0000CD0E18F51B1C068A16B0880A06B801C61
:100EE000A063E08F401EE0874FF00109FFF7D8FBB9
:100EF000A0EB0800B04200E009E001D3701C50D123
:100F0000E08E0028CDD1E08F0028CAD13FE0206BD1
:100F1000216800780873206B401C2063E08E401E1F
:100F2000E0862EE02068816889070FD5E18E69B1DF
:100F3000B9F1010F0AD1216B09780173206B401CB4
:100F40002063E08E401EE0864FF000092068816833
:100F5000C9070CD0E18F51B1C068A16B0870A06BBC
:100F6000401CA063E08F401EE0874FF00109FFF7AF
:100F700097FBA0EB0800B04202D3701C01D010E038
:100F80007EB1E08E0028CDD1E08F0028CAD1424644
:100F90003146204600F08CF928B1012720206065F9
:100FA00007E0032705E0A06818B92068C1688068D9
:100FB0000090012084F85100002084F85000384649
:100FC0002CE710B5401EB0F1807F01D3012010BD89
:100FD0004FF0E02460610F21601700F01BFD00203E
:100FE000A06107202061002010BD70B5040004D06E
:100FF00094F83900002510B106E0012070BD84F896
:101000003850204600F022F8242084F83900206867
:10101000C16821F40051C160204600F01DFC206829
:10102000016921F4904101612068416921F02A01A0
:1010300041612068C16841F40051C160E56320202E
:1010400084F8390084F83A00002070BD10B586B0ED
:10105000044614216846FFF7F1F8144920688842D5
:1010600021D113480021026842F01002026000689A
:1010700000F0100005900E481438026842F001029A
:101080000260006800F0010005904FF4C06000901D
:101090000220CDE901010320039007200490694656
:1010A0000448FFF729FA06B010BD00000010014007
:1010B00044380240000002402DE9F843044690F80D
:1010C00039001F4616460D46202850D1B5B1AEB1A5
:1010D00094F8380001284AD0012084F838004FF0F5
:1010E0000008C4F83C80212084F83900FFF7D8FAC2
:1010F000A6848146E68484F8388026E00120BDE895
:10110000F883E08C401EE084A0684B46B0F5805F19
:101110004FF000024FF080012046009703D000F00E
:101120002FFCE8B90DE000F02BFCC8B92888216835
:10113000C0F308004860206908B16D1C05E0AD1CD3
:1011400003E0216815F8010B4860E08C0028D8D135
:101150004B46002240212046009700F011FC08B1C8
:101160000320CCE7202084F839000020C7E70220C4
:10117000C5E7FEE7F0B587B014216846FFF75EF8D3
:1011800021480024016841F004010160016801F078
:1011900004010591016841F001010160016801F05D
:1011A00001010591016841F002010160006801221E
:1011B00000F00200154E5503059029463046FFF712
:1011C0006AFA134F002218213846FFF764FA009597
:1011D0000125CDE90154694630460394FFF78CF9A7
:1011E00018200090CDE90154694638460394FFF772
:1011F00083F940F20740CDE90004694605480294AE
:10120000FFF77AF907B0F0BD30380240000802401D
:101210000000024000040240104810B50E49016071
:101220004FF48271416000218160C1604FF400720F
:101230000161C0E905122822C0E9072141628162EB
:101240000A21C162FFF758FD002803D0BDE8104015
:10125000FFF73EB910BD00000030014060000020E3
:101260000C4810B50A4901604FF4E131416000219A
:1012700081600C22C160C0E904128161C161FFF785
:10128000B4FE002803D0BDE81040FFF721B910BD1F
:1012900000100140B8000020FEE77047704708B515
:1012A0000122694600F096F89DF8000008BD000094
:1012B00038B504461248134B0068B0FBF3F04FF406
:1012C0007A73584300906068B0F5827F0DD10B4669
:1012D000009200228021204600F016F870B1606D67
:1012E00040F020006065032038BD009830B1401EFA
:1012F000009020688068C0430006F6D5002038BD05
:101300001000002000366E012DE9F0411D46174601
:101310000E460446DDF8188008E0681C06D0FFF78A
:10132000BFF9A0EB0800A8420BD255B12068806835
:1013300036EA000030D00020B842EED10020BDE8EF
:10134000F0812068416821F0E00141606068B0F5FB
:10135000827F0BD1A068B0F5004F02D0B0F5806F4E
:1013600004D12068016821F040010160A06AB0F555
:10137000005F09D12068016821F4005101602068F4
:10138000016841F400510160012084F851000020FF
:1013900084F850000320D2E70120CDE77047000019
:1013A00001210148FFF772B90004024002210148FF
:1013B000FFF76CB90004024004210148FFF766B949
:1013C000000402404FF480610148FFF75FB900005C
:1013D0000004024070B5044615460E46002000F099
:1013E000A9F904F07F0000F095F9002405E0002041
:1013F00000F090F93055641CE4B2AC42F7D3BDE87C
:101400007040012000F096B970B5044615460E46AE
:10141000002000F08FF944F0800000F07BF90024F8
:1014200004E0305D00F076F9641CE4B2AC42F8D31D
:10143000BDE87040012000F07DB90000024608219F
:101440000148FFF728B900000000024010B5012054
:10145000FFF725FF00F0F80010BD000070B55E4CEE
:1014600020780E286FD2DFE800F007092F50525481
:101470005876787A8DAFB1B3002070BD012000F0AE
:10148000EBF800210F2000F0AEFA00210D2000F053
:10149000AAFAFF211F2000F0A6FABF21112000F0B8
:1014A000A2FA4020FFF7FBFE00F03F01402000F0D1
:1014B0009AFA052000F0D0F81220FFF7F0FEFFF7AF
:1014C000EFF8E060022014E0FFF76AFF01280BD07C
:1014D000FFF76CFF042501280DD0FFF7E1F8E16864
:1014E00088420CD3401A0CE04021122000F07BFA15
:1014F0000320207066E0802121E0257062E0C9436E
:101500000844A1688842F8D85CE0022070BD03203E
:1015100070BDFFF7C5F8E06054E0FFF741FF072515
:1015200001280BD0FFF73CFF012807D0FFF7B8F8E0
:10153000E1680822884207D3401A07E008211220F8
:1015400000F051FAD9E745E0C9430844A168884250
:1015500038D9227036E0042070BD052070BD01200E
:1015600000F07AF8FA21112000F03DFA0021402025
:1015700000F039FA072000F06FF8FFF791F8E0600B
:101580000A20B6E7FFF718FF012807D0FFF788F811
:10159000E1680D22884211D3401A11E00421122083
:1015A00000F021FAFFF70EFF012801D00C20A0E780
:1015B0000121122000F017FA0B209AE7C9430844D2
:1015C0006428C6D8012070BD062070BD072070BDFC
:1015D000082070BD092070BD300000200A46014679
:1015E0000020FFF7F7BE000010B5FEF7A4FE9FED48
:1015F0000E1B53EC112BFEF72CFEFEF7A9FE044642
:10160000002000F029F8C4F30741062000F0EBF9B0
:10161000C4F30721072000F0E6F9E1B2BDE810406D
:10162000082000F0E0B900008DEDB5A0F7C6903FAE
:1016300010B50120FFF733FE00060CD4002000F0A7
:101640000BF80120FFF72BFE40F08001BDE81040B1
:10165000012000F0C8B910BD10B50446FFF7F6FE32
:10166000A0420FD00120FFF71AFE00F0F80020433F
:1016700040F00801012000F0B6F9BDE8104001205B
:1016800000F045B810BD000070B51D4D06460520A0
:101690000C462870FF2900D9FF240AB1AA6002E095
:1016A0004FF47A70A860E1B2222000F09CF900218A
:1016B0000E2000F098F900210D2000F094F901208F
:1016C000FFF7CAFFE1B2304600F01CF8F721112005
:1016D00000F089F94020FFF7E2FD00F03F0040F004
:1016E0004001402000F07FF9FFF7B8FE0320FFF72C
:1016F000B3FF1220FFF7D3FD0620287070BD000055
:10170000300000200A4601460020FFF77DBEFEF7AC
:10171000E1BE000001B582B04FF6FF7000900123DA
:1017200001AA02A90248FFF75BFB9DF804000EBD69
:1017300060000020024610210148FEF7ACBF000007
:101740000000024070B505460C461320FFF7A7FDC8
:101750002188814201D2084600E02080C1B228469B
:10176000BDE87040FFF73ABF10B50020FFF766FEF6
:101770000A20FFF7CCFF0120FFF760FE0A20FFF7E9
:10178000C6FF02490020087010BD00003000002094
:10179000014909200870704730000020044918B141
:1017A00088600120087070474FF47A70F8E70000F5
:1017B00030000020FEF77ABF30B593B03021684684
:1017C000FEF73CFD14210CA8FEF738FD1948002552
:1017D000016841F080510160006800F08050119074
:1017E0001548016821F4404141F40041016000685E
:1017F000022400F440401190012003901020049036
:10180000009406940820CDE907505420CDE909043E
:1018100004200B906846FFF7C1F80CA90F2081E85F
:101820003100E002CDE90F0502210CA8FEF7CAFF46
:1018300013B030BD403802400070004005480168D8
:1018400041F47001016003494FF000608039086085
:101850007047000088ED00E02DE9F0410446006883
:101860000169E26821F44051114301612169A068D6
:10187000E26908436169114308432168CA6849F273
:101880000C639A430243CA6020684169A26921F44B
:10189000407111434161E069192764253226B0F592
:1018A000004F354A354920684FF0000806D088427D
:1018B00001D0904236D1FFF72FF835E0884201D0B1
:1018C000904202D1FFF728F801E0FFF715F86168B0
:1018D0004A18A0FB070148EB0803FEF777FC014616
:1018E000B0FBF5F00201B1FBF5F06FF018035843BF
:1018F00001EB800006EBC000B0FBF5F000F0F80053
:1019000002EB4002B1FBF5F0584301EB800006EB1F
:10191000C000B0FBF5F000F00700216810448860BB
:10192000BDE8F081FEF7E8FF61688B0F8A00A0FB3D
:101930000701FEF74BFC0146B0FBF5F06FF0180213
:10194000504301EB800006EB0010B0FBF5F000F017
:10195000F002B1FBF5F002EB0012B1FBF5F06FF015
:101960001803584301EB800006EB0010B0FBF5F0C4
:1019700000F00F00D1E7000000140140001001400A
:101980002DE9F041984617460E460446069D1DE097
:10199000681C1BD02DB1FEF783FEA0EB0800A84207
:1019A00014D92068C16821F4D071C16020684169F0
:1019B00021F001014161202084F8390084F83A00C7
:1019C000002084F838000320BDE8F081206800681A
:1019D00036EA000004D00020B842D9D00020F3E756
:1019E0000120F9E7FEE713B5012201A9FFF70CFD7D
:1019F0001CBD00000FB4054B10B503A9044A0298A2
:101A000000F028F810BC5DF814FB00000D1C000865
:101A1000000000200907090E002804DB00F1E02087
:101A200080F80014704700F00F0000F1E02080F80B
:101A3000141D704702E008C8121F08C1002AFAD11D
:101A400070477047002001E001C1121F002AFBD13E
:101A5000704700002DE9FF4F8BB09A460F460546B0
:101A6000002606E025280BD052460D9990476D1CA4
:101A7000761C28780028F5D10FB03046BDE8F08FED
:101A80000024A0460122604900E0044315F8013F0C
:101A9000203B02FA03F00842F7D128782E2817D10C
:101AA00015F8010F44F004042A280ED06FF02F021D
:101AB0002878A0F1300109290AD808EB880102EB47
:101AC000410100EB01086D1CF2E757F8048B6D1C17
:101AD000287869283ED006DC0028CDD063280BD0BA
:101AE000642804D136E0732810D075284BD05246B4
:101AF0000D999047761C85E017F8040B8DF80000CF
:101B000000208DF80100E946012003E057F8049B0E
:101B10004FF0FF3061074FF0000401D40AE0641C6D
:101B200044450DDA8442FADB19F804100029F6D195
:101B300006E0641C8442FCDB19F804100029F8D18B
:101B4000264404E019F8010B52460D999047641E93
:101B5000F8D257E001CF4FF00A0B002802DA4042DA
:101B60002D2102E0210504D52B218DF8241001211F
:101B700003E0E10705D02021F7E70DF120090891E6
:101B80000CE00021F9E701CF4FF00A0BF9E75946C5
:101B9000FEF7F7FB01F1300209F8012D0028F6D11C
:101BA000ADEB090000F1200B600701D44FF00108F4
:101BB000D84502DDA8EB0B0000E0002080460024A1
:101BC00006E009A85246005D0D999047641C761CFA
:101BD00008988442F5DB04E0302052460D99904786
:101BE000761CB8F10001A8F10108F5DC05E019F850
:101BF000010B52460D999047761CBBF10001ABF1E9
:101C0000010BF4DC6D1C34E70928010038B50446EB
:101C10008DF80000064800680168C9430906FBD436
:101C2000FF23012269460248FFF746FA204638BDE5
:101C3000B80000200EB5FEF741FDFFF7BDFDFFF730
:101C400099FAFFF7E9FAFFF70BFB184A07CA8DE884
:101C50000700174801686846884742F210764FF43B
:101C60000054144D4FF4FA78FEF71AFD0746324639
:101C7000392111A000F020F918B11EA0FFF7BAFE1B
:101C8000F2E7FEF70DFDC11B1EA0FFF7B3FE002219
:101C900021462846FEF7FFFC4046FEF71BFC0122CA
:101CA00021462846FEF7F7FCDEE70000441F000847
:101CB000140000200008024048656C6C6F20576FCC
:101CC000726C642121616161616161616161616165
:101CD00061616161616161616161616161616161F4
:101CE00061616161616161616161616161616161E4
:101CF0006100000053656E642074696D65206F7526
:101D00007421000053656E6420737563636573739B
:101D10002120757365202564206D730D0A00000075
:101D200010B50446FFF720FD07E028224A494BA0E2
:101D3000FFF760FE6420FFF7EAFC0620FFF7AFFA2A
:101D40006C28F2D14CA0FFF755FEFFF771FC24B1CF
:101D50004D4894E80E0080E80E004B4C607909284D
:101D600006D935223C4949A0FFF744FE092060719D
:101D7000E079042806D93922374944A0FFF73AFE12
:101D8000042006E030B93D22334940A0FFF732FE7F
:101D90000120E071A0790C2806D941222E493BA0F0
:101DA000FFF728FE0C2007E0062806D245222A4924
:101DB00036A0FFF71FFE0620A07194F90400142836
:101DC00006DD4922244931A0FFF714FE14202071BA
:101DD0002068FFF709FC2C4960790D39E279095C2C
:101DE00029482438105C01431D20FFF7FCFD2648DC
:101DF000A1791A38085C40F007011E20FFF7F3FDB7
:101E0000FF211F20FFF7EFFD0C212620FFF7EBFD40
:101E100094F90400112806DD7B30C1B20920FFF7D8
:101E2000E2FD872105E07E30C1B20920FFF7DBFD2E
:101E300084214D20FFF7D7FD3B210B20FFF7D3FD79
:101E40002089010A2020FFF7CEFD217ABDE810404D
:101E50002120FFF7C8BD0000681F00085B455252F3
:101E60004F5220257328292D25645D7370692065E4
:101E700072726F720D0A000073706920696E697466
:101E8000206F6B0D0A000000540000205B57415288
:101E900052494E4720257328292D25645D736574AA
:101EA00074696E67206572726F722C6175746F2031
:101EB0006669780D0A0000002DE9F04115460E46CE
:101EC0000746FEF7EDFB044631462220FFF78BFD67
:101ED00000210E20FFF787FD00210D20FFF783FD75
:101EE0000120FFF7B9FB31463846FFF70BFCF7211D
:101EF0001120FFF778FD4020FFF7D1F900F03F00F7
:101F000040F040014020FFF76EFD0320FFF7A4FBE7
:101F10001220FFF7C4F9E643FFF742FA012805D083
:101F2000FEF7BEFBA04208D3001B07E008211220E9
:101F3000FFF759FD0020BDE8F0813044A842EBD9FD
:101F40000120F8E7C092ED1912070C01050000000E
:101F50000000000000000000010203040607080959
:101F60000000000001020304737831323778496EB3
:101F700069740000941F0008000000206000000049
:101F8000341A0008F41F00086000002098040000C4
:101F9000441A0008000000000100000010000000CA
:101FA000000000000024F400211D0008691700084B
:101FB0009D170008451700088916000891170008AA
:101FC0005D1400080002040608000000E803000099
:101FD0000000000060708090A0B0C0001020304071
:101FE0005060708090000000C092ED191407070146
:041FF0000F000000DE
:040000050800019559
:00000001FF
